:020000040800F2
:1000000000000120E53600083537000835370008C4
:100010003537000835370008353700080000000084
:10002000000000000000000000000000353700085C
:100030003537000800000000353700088536000815
:1000400035370008353700083537000835370008E0
:1000500035370008353700083537000835370008D0
:1000600035370008353700083537000835370008C0
:1000700035370008353700083537000835370008B0
:1000800035370008353700083537000835370008A0
:100090003537000835370008353700083537000890
:1000A0003537000835370008353700083537000880
:1000B0003537000800000000000000003537000858
:1000C0003537000800000000000000003537000848
:1000D0000000000035370008353700080000000038
:1000E0003537000835370008000000000000000028
:1000F0000000000000000000000000000000000000
:10010000000000000000000000000000353700087B
:1001100000000000000000003537000835370008F7
:1001200035370008353700083537000835370008FF
:10013000353700080000000000000000000000004B
:1001400035370008353700083537000835370008DF
:1001500035370008353700083537000835370008CF
:100160003537000835370008353700080000000033
:100170003537000835370008000000000000000097
:100180003537000835370008353700080000000013
:1001900010B5054C237833B9044B13B10448AFF3C1
:1001A00000800123237010BD080000200000000023
:1001B000803700080C4B43B10C480D4910B5AFF324
:1001C00000800C48036823B910BD0A48036833B99E
:1001D0007047094B002BF7D0BDE810401847064B7D
:1001E000002BF5D0184700BF000000008037000842
:1001F0000C000020080000200000000053B94AB99C
:10020000002908BF00281CBF4FF0FF314FF0FF301E
:1002100000F07AB9ADF1080C6DE904CE00F006F8F3
:10022000DDF804E0DDE9022304B070472DE9F04772
:100230008C460D460446089E002B51D18A42174633
:100240006DD9B2FA82FEBEF1000F0BD0CEF1200CB8
:1002500001FA0EF520FA0CFC02FA0EF74CEA050C36
:1002600000FA0EF44FEA174A250CBCFBFAF81FFA05
:1002700087F90AFB18CC45EA0C4508FB09F3AB42A9
:100280000AD9ED1908F1FF3280F02381AB4240F228
:100290002081A8F102083D44ED1AA4B2B5FBFAF0A2
:1002A0000AFB105544EA054400FB09F9A14509D9A8
:1002B000E41900F1FF3380F00A81A14540F2078183
:1002C00002383C44A4EB090440EA08400021002E17
:1002D00061D024FA0EF4002334607360BDE8F08727
:1002E0008B4207D9002E54D0002186E82100084611
:1002F000BDE8F087B3FA83F1002940F08E80AB426D
:1003000002D3824200F2FA80841A65EB03050120D1
:10031000AC46002E3FD086E81010BDE8F08712B939
:100320000127B7FBF2F7B7FA87FEBEF1000F34D111
:10033000EB1B3A0C1FFA87FC0121B3FBF2F8250CEA
:1003400002FB183345EA03450CFB08F3AB4207D91F
:10035000ED1908F1FF3002D2AB4200F2D1808046A5
:10036000ED1AA3B2B5FBF2F002FB105543EA0544C7
:100370000CFB00FCA44507D9E41900F1FF3302D2BD
:10038000A44500F2B8801846A4EB0C0440EA0840EB
:100390009DE731463046BDE8F087CEF1200405FAEE
:1003A0000EF307FA0EF720FA04F83A0C25FA04F4D3
:1003B00048EA0308B4FBF2F14FEA184502FB114486
:1003C0001FFA87FC45EA044501FB0CF3AB4200FA37
:1003D0000EF409D9ED1901F1FF3080F08A80AB42AB
:1003E00040F2878002393D44EB1A1FFA88F5B3FBCF
:1003F000F2F002FB103345EA034500FB0CF3AB427D
:1004000007D9ED1900F1FF386FD2AB426DD9023830
:100410003D44EB1A40EA01418FE7C1F1200722FA7F
:1004200007F88B4005FA01F448EA030320FA07FEB7
:100430004FEA134CFD404EEA040EB5FBFCF94FEABF
:100440001E440CFB19551FFA83F844EA054509FBC5
:1004500008F4AC4202FA01F200FA01FA08D9ED18E8
:1004600009F1FF3043D2AC4241D9A9F102091D4440
:100470002D1B1FFA8EFEB5FBFCF00CFB10554EEA4F
:10048000054400FB08F8A04507D9E41800F1FF3542
:1004900029D2A04527D902381C4440EA0940A4EBE0
:1004A0000804A0FB02894C45C6464D4615D312D020
:1004B00056B1BAEB0E0364EB050404FA07F7CB4020
:1004C0001F43CC40376074600021BDE8F0871846B8
:1004D000F8E69046E0E6C245EAD2B8EB020E69EBD8
:1004E00003050138E4E72846D7E7404691E781460F
:1004F000BEE7014678E702383C4445E7084608E78E
:10050000A8F102083D442BE7704700BF38B50A4BFD
:100510000A4A1B68A2FB03230546980900F084FDE4
:1005200008B1012038BD0446024629464FF0FF308D
:1005300000F044FD204638BD00000020D34D62107D
:1005400000B5032083B000F027FD0020FFF7DEFF99
:1005500018B1012003B05DF804FB019002F098FF90
:10056000019803B05DF804FB024A1368013313607D
:10057000704700BF28000020014B1868704700BF7B
:100580002800002038B50446FFF7F6FF631C054637
:1005900018BF0134FFF7F0FF401B8442FAD838BD82
:1005A000F0B583B000230193002800F0B680456DBC
:1005B0000446002D00F09E8022689368980005D5BF
:1005C000936823F0204323F03F0393609368D9009E
:1005D00017D45C4B91681B685B489B0921F0104164
:1005E000A0FB030321F03F019B0941F08051916082
:1005F0000193019B2BB1019B013B0193019B002BBC
:10060000F9D19368DB0014D4636D43F01003636584
:10061000A36D43F00103A36593685F074FF00100EA
:100620000CD5636D636D012043F01003636503B067
:10063000F0BD93685F074FF00000F2D4636DD906F8
:10064000F0D4636D23F4817343F002036365936810
:10065000DE070AD43D4B9B68DB0706D43C4965683E
:100660008B6823F47C132B438B60636BE768A6686D
:1006700094F82010657E3B43334343EA4533012918
:1006800043EA014344D0A16A21B1E56A01F47071E3
:1006900029430B43D5682F4929400B43D360936806
:1006A00091680D0703F0040315D4A3B9D16894F839
:1006B0003030267E94F8385021F480415B0021F0E0
:1006C000020143EA86330B43012DD36028D013691E
:1006D00023F0010313612369012B11D0136B23F065
:1006E0000F031363636D23F0030343F0010363659A
:1006F00003B0F0BD02F014FFA56584F850505BE72D
:10070000116BE36921F00F01013B0B431363E9E730
:10071000616A013943EA4143B5E7012003B0F0BD06
:10072000E36B276C666C1569A16C3B4343F00103D6
:10073000334325F4FF650B4325F004052B43136178
:10074000C9E700BF00000020632D3E0500000450F3
:100750000003045007C0F0FFF8B54469082C04D02A
:100760000368DB68DC0740D404240D460646FFF727
:1007700003FF0746326801E0681C14D113681C426D
:10078000FAD0736D43F400737365D36813F4406F4C
:1007900019D0082CD0682ED010F4804006BF0C234E
:1007A00013600020F8BDFFF7E7FEC01B854201D3B0
:1007B000002DDFD1736D002243F00403736586F8CA
:1007C00050200320F8BD737E002BE2D11368190777
:1007D000DFD5736D23F480737365736DDB04D8D438
:1007E000736D43F001037365D3E7436D43F020035A
:1007F00043650120F8BD14600020F8BD0368186C43
:10080000704700BFF0B5034683B093F85020002036
:10081000012A01907BD01D68AC68012014F004040B
:1008200083F8500008D05A6D42F020025A65002229
:1008300083F8502003B0F0BD486805286AD900F05D
:100840001F071F26840906FA07F004F00C04C043B2
:1008500005F1300E0A685EF80460C2F3846230402D
:10086000BA4002434EF80420AA68A868040702F0C0
:10087000040200F1A380002A40F0A08008688C6880
:10088000C60D06F0040605F1140EC0F3045056F828
:100890000E200727874022EA070204FA00F00243ED
:1008A00046F80E200E69E868042E3BD00C684A69B1
:1008B000DFF894E305F16007C0F3C1004000824017
:1008C00004F0F84457F8260044F00044224300EABC
:1008D0000E0E42EA0E0247F826200A68A868C007F2
:1008E00070D51446CF4A14420FD0CF4ACF499068F2
:1008F0008C4200F0E07600F0CA80CD498C4200F0D6
:10090000EA80CC498C4200F0B28000208FE70220C0
:1009100003B0F0BD0238032800F2EE80DFE800F0FB
:10092000A29D98900A682C6EC2F31200C4F38466EC
:10093000002840F01C81C2F38467BE4240F063810E
:10094000284624F0004440F8604F0A686C6EC2F3F9
:100950001207C4F3846605F1640E002F40F0158180
:10096000C2F38467BE4240F0568124F00044CEF8C2
:1009700000400A688468C2F31207C4F3846600F179
:10098000080E002F40F00D81C2F38467B74240F09B
:100990005F8124F00044CEF800400A68C668C2F3C4
:1009A00012040C30C6F38467002C40F00581C2F3BA
:1009B0008464BC4292D126F000460660A8680A68AA
:1009C000C0078ED4CE689C48D5F8B040DFF87CE2F2
:1009D00006F01807F840C2F3120724EA0704104093
:1009E00020437645C5F8B00014467FF47BAF002F56
:1009F00040F08780920E501C00F01F06092E00F276
:100A0000A7808006012400F0F840B44006EB4602BF
:100A1000204312050243D40D04F0040405F1140E22
:100A2000C2F3045254F80E008E680727974020EA5C
:100A3000070006FA02F2024344F80E200C6851E760
:100A40004FF480724A6000276FF01F000424FFE615
:100A500018274F606FF0F850FAE612274F606FF4D6
:100A6000F800F5E60C274F606FF4F830F0E610F46C
:100A700080007FF44AAF71498D427FF446AF9168A0
:100A800021F0E071314341F480019160CFE6010231
:100A90003FF53BAF69498D427FF437AF9168684CB1
:100AA000684821F0E071314341F40001916022680F
:100AB0009209A0FB0212920902EB420292000192FB
:100AC000019A002A3FF421AF019A013A0192019A5A
:100AD000002AF9D119E710F080707FF416AFA1F168
:100AE000F7418D427FF411AF916821F0E0713143FD
:100AF00041F0807191609AE606274F606FF4F860CC
:100B0000A6E692FAA2F0B0FA80F0013000F01F00E1
:100B1000092856D892FAA2F0B0FA80F092FAA2F41C
:100B2000B4FA84F401340130012604F01F04800675
:100B300006FA04F400F0F840204392FAA2F2B2FA66
:100B400082F2324402F01F0202EB4202120561E718
:100B500006EB460284061E3A012004F0F84400FA2F
:100B600006F61205344342F00072224353E792FA2C
:100B7000A2F0B0FA80F086423FF4E2AE6C6E05F16E
:100B80006000C4F3846605F1640E92FAA2F7B7FA26
:100B900087F7B7423FF4E9AE846800F1080EC4F36A
:100BA000846692FAA2F7B7FA87F7B7423FF4F1AE3C
:100BB000C6680C30C6F3846792FAA2F4B4FA84F4DF
:100BC000F7E692FAA2F4B4FA84F492FAA2F0B0FA38
:100BD00080F001300134012600F01F00A40606FA5F
:100BE00000F004F0F844044392FAA2F0B0FA80F066
:100BF000304400F01F0000EB4000A0F11E0212057F
:100C000042F00072B1E76C6E05F16000C4F38466D7
:100C100005F1640EA6E6846800F1080EC4F384664C
:100C2000B2E600BF0000088000030450000052C775
:100C3000000084CB01000080FFFF0700000004508B
:100C400000000020632D3E0500F0FF0300007F4000
:100C5000C6680C30C6F38467A9E600BF03689A68CB
:100C6000D20701D50020704799681B4A114209D06C
:100C7000436D43F010034365836D43F001038365C7
:100C80000120704770B59A68144E324042F001025C
:100C90009A600446FFF770FC05460CE09A68D1079D
:100CA00004D49A68324042F001029A60FFF764FC73
:100CB000401B022805D823681A68D207EED5002009
:100CC00070BD636D43F010036365A36D43F00103D2
:100CD000A365012070BD00BF3F000080C0FFFF7F03
:100CE00038B503689C6814F0040404D190F85030BF
:100CF000012B054601D1022038BD012385F8503073
:100D0000FFF7ACFF40BB6B6D23F4706323F001036E
:100D100043F480736B656B6DDA0448BFAB6D2A6872
:100D200052BFA86523F00603AB651C231360D3688C
:100D300000219B0185F8501005D56B6D23F44053BD
:100D400043F480536B65936823F0004323F03F0323
:100D500043F00403936038BD85F8504038BD00BFB0
:100D600000287CD090F8203070B50446002B73D05A
:100D70002268136823F002031360FFF7FDFB0546AA
:100D800004E0FFF7F9FB401B0A285CD823685A6887
:100D90009107F6D41A6842F001021A60FFF7ECFBE3
:100DA000054604E0FFF7E8FB401B0A284BD8236800
:100DB0005A68D207F6D5227E012A1A680CBF42F083
:100DC000800222F080021A60627E012A1A680CBF3B
:100DD00042F0400222F040021A60A27E012A1A6804
:100DE0000CBF42F0200222F020021A60E27E012AAB
:100DF0001A680CBF22F0100242F010021A60227F23
:100E0000012A1A680CBF42F0080222F008021A6098
:100E1000627F012A1A680CBF42F0040222F0040229
:100E20001A60A268E66825696069616832432A43EE
:100E3000024301390A4301250021DA610846616253
:100E400084F8205070BD636A052243F40033636266
:100E5000012084F8202070BD02F086FB88E7012085
:100E6000704700BF38B590F82030012B05D0436A99
:100E700043F400234362012038BD0268022380F856
:100E80002030136823F0010313600446FFF774FB5E
:100E9000054604E0FFF770FB401B0A2807D82368CB
:100EA0005B6813F00103F5D16362184638BD636ACD
:100EB000052243F400336362012084F8202038BD0A
:100EC000F0B490F820400568013C012CAE6806D9CA
:100ED000436A43F4802343620120F0BC704716F05C
:100EE000E05F2ED0C6F30166032E31D00120B04062
:100EF00018608B6893BB0C68C86806F118031B0167
:100F000040EA4450E850087D09693601AB190128D0
:100F1000C3F8841105D1D3F8841141F48071C3F86A
:100F2000841135445168C5F88C111268C5F88821C0
:100F3000D3F8802142F001020020C3F88021F0BCE8
:100F40007047436A43F400134362F0BC01207047CA
:100F5000436A43F4000343620120BEE7CF684C6854
:100F600006F118003B43000143EAC4032B50CAE7D3
:100F700090F82030013B012B01D900207047036815
:100F800098689A689B681201C0F3806048BF01307E
:100F9000DB00F3D501307047074AD3684FF6FF01F5
:100FA0000B40000243F0BF6300F4E06043F4003301
:100FB0000343D360704700BF00ED00E0184B70B4EE
:100FC000DC68C4F30224C4F10706042E04F1040310
:100FD00028BF0426062B17D9033C0125A540013D57
:100FE0002A400123B340013B1940A140002841EAB7
:100FF00002010CDB00F1604000F561400901C9B25B
:1010000080F8001370BC704700221446E9E7054BD6
:1010100000F00F0009010344C9B2197670BC704793
:1010200000ED00E0FCEC00E00138B0F1807F0ED272
:10103000084B10B4084C5860F02084F823000022BC
:10104000072110469A6019605DF8044B7047012033
:10105000704700BF10E000E000ED00E0044A1368B4
:1010600004280CBF43F0040323F00403136070470B
:1010700010E000E0704700BF08B5FFF7FBFF08BDB8
:101080008C460968002900F0C9802DE9F04FDFF88F
:101090009CE183B000254FF0010870E04FEA45095C
:1010A0000323D0F800B003FA09F3DB4304F003068E
:1010B0000BEA030B06FA09F60AF1FF3A46EA0B06B9
:1010C000BAF1010F066040F28D80C668DCF8082096
:1010D000334002FA09F21A43E300C2604BD5504B89
:1010E0004F4A1B6E43F001031366136E25F0030293
:1010F00002F1804203F0010302F58032019305F012
:101100000303019E96689B004FF00F0909FA03F94B
:10111000B0F1904F26EA09097BD0424EB0427AD016
:10112000414EB0420CBF0226072606FA03F343EAFB
:1011300009039360DEF80030FA43E60354BF13401E
:101140003B43CEF80030DEF80430A60354BF134012
:101150003B43CEF80430DEF80830E60254BF1340BB
:101160003B43CEF80830DEF80C30A40254BF1340E5
:101170003B43CEF80C30013531FA05F346D008FA7E
:1011800005F212EA0107F6D0DCF8044024F0100A58
:10119000BAF1020F82D14FEAD50900EB890905F0B7
:1011A0000706D9F82030B6004FF00F0A0AFA06FBFE
:1011B00023EA0B0ADCF81030B34043EA0A03C9F80B
:1011C00020304FEA45090323D0F800A003FA09F3C1
:1011D000DB4304F0030603EA0A0A06FA09F646EAC4
:1011E0000A060660866806EA030ADCF80C6006FA5E
:1011F00009F646EA0A068660D0F804A0C4F3001691
:101200002AEA0202AE40164346605EE703B0BDE83C
:10121000F08F00238BE708FA03F388E7704700BFDD
:10122000001002400004004800080048000401408B
:101230000AB9816270478161704700BF43695940B4
:101240004161704770B505460C461646286801E0B6
:10125000631C20D183699906FAD510222023C2612C
:10126000C36183699A0744BF002383628369DB07F4
:101270001CD54368104A134043606B6C202143F037
:10128000040300226B6485F8402085F8411001209A
:1012900085F8422070BDFFF76FF9801B844201D3AF
:1012A000002CD3D16B6C20210B43EAE7836943F018
:1012B00001038361DDE700BF00E800FE70B505466D
:1012C0000C46164601E0611C11D12B689A69920701
:1012D0000BD49B69D806F6D5324621462846FFF73F
:1012E000B1FF0028EFD0012070BD002070BDFFF7D6
:1012F00043F9801B844201D3002CE6D16B6C202182
:1013000000220B436B6485F8402085F841100120D2
:1013100085F8422070BD00BF70B505460C461646E4
:1013200005E0FFF729F9801B844210D37CB12B68BC
:101330009A69920618D49B69D906F2D5324621469D
:101340002846FFF77FFF0028EBD0012070BD6B6CB3
:10135000202100220B436B6485F8402085F8411062
:10136000012085F8422070BD002070BD2DE9F041BC
:1013700080460F4616461D46D8F8004001E06B1C1B
:101380000AD1A06937EA00030CBF01200020B04257
:10139000F5D00020BDE8F081FFF7EEF8069BC01AFB
:1013A000854201D3002DE7D1D8F844302021002216
:1013B0000B43C8F8443088F8402088F841100120D9
:1013C00088F84220BDE8F081F0B50668DFF86CE0EF
:1013D0007468C1F3090141F0014104EA0E0441F4CB
:1013E000005183B021431F46DBB241EA034114465A
:1013F0007160099A08990546FFF760FFD0B9012F7F
:101400002B6808D0220A9A620899099A2846FFF7A1
:1014100055FF78B92B68E4B29C62099B009328467B
:10142000089B00228021FFF7A1FF003018BF012098
:1014300003B0F0BD012003B0F0BD00BF009800FC78
:10144000F0B50668DFF86CE07468C1F3090141F09B
:10145000004104EA0E0441F4005183B021431F46C9
:10146000DBB241EA034114467160099A08990546C6
:10147000FFF724FFD0B9012F2B6808D0220A9A6207
:101480000899099A2846FFF719FF78B92B68E4B242
:101490009C62099B00932846089B00224021FFF78D
:1014A00065FF003018BF012003B0F0BD012003B07C
:1014B000F0BD00BF009800FC002851D0F8B590F8AE
:1014C0004130044603F0FF02002B40D02368E0685F
:1014D000242284F841201968626821F0010122F079
:1014E000706219601A619A68012822F400429A60B9
:1014F000A26831D042F4044202289A6004BF4FF43B
:1015000000625A6059682269D4F814E0A769E0695A
:10151000266A41F0007141F400415960DD6842EAF9
:101520000E0242EA0722304325F40045DD60DA600E
:1015300018601968002241F0010120251960104649
:10154000626484F84150226384F84220F8BD80F838
:10155000402002F03DF8B9E742F400429A60D1E73A
:10156000012070472DE9F04F90F8414083B0202CC6
:10157000BDF8346003D0022003B0BDE8F08F0C9CAE
:10158000D4B1CEB190F84040012CF4D0012580F8C0
:101590004050984691460F460446FEF7EDFF2A4616
:1015A0000090824619234FF400412046FFF7DEFEEB
:1015B000834630B10120DFE74FF40073436401201C
:1015C000DAE70C9B6362212040210E9BC4F834B003
:1015D0004A460093CDF804A0434684F8410084F8BD
:1015E00042102046C4F844B039466685FFF7ECFE49
:1015F00000285DD1638D9BB2FF2B5DD92068424DE1
:101600004268C7F3090141F0FF732A4043F4803375
:101610001343FF22228543608DB245F0FF7646F4E6
:10162000803603E0638D9BB2002B56D052460E9954
:101630002046FFF743FE0028BCD1616A236811F8F9
:10164000012B9A62638D228D6162013B9BB263859F
:10165000638D013A92B29BB22285002BE2D0002A20
:10166000E0D18021CDF800A00E9B2046FFF77EFE42
:1016700025494FF0FF0E0F4645F00072002899D122
:10168000638D9BB2734507D92268A4F828E053689C
:101690000B4033435360C5E72068618D436889B2CE
:1016A0003B401343CFB243EA074321854360B9E788
:1016B00084F840B028465FE72568628D12486B6861
:1016C000C7F30901184092B241F000730343D0B24E
:1016D00043EA004322856B609EE752460E992046FE
:1016E000FFF71AFE00287FF465AF2368074D20211D
:1016F000D9615A682A405A6084F8411084F8400041
:1017000084F8420038E700BF009C00FC00E800FEBF
:101710002DE9F04F90F8414083B0202CBDF83460A3
:1017200003D0022003B0BDE8F08F0C9CD4B1CEB141
:1017300090F84040012CF4D0012580F840509846A4
:1017400091460F460446FEF717FF2A460090824650
:1017500019234FF400412046FFF708FE834630B1BD
:101760000120DFE74FF4007343640120DAE70C9BAC
:101770006362222040210E9BC4F834B04A46009395
:10178000CDF804A0434684F8410084F84210204676
:10179000C4F844B039466685FFF752FE00285FD191
:1017A000638D9BB2FF2B5FD92068444D4268444B48
:1017B000C7F309012A400B431343FF2222854360EC
:1017C0008DB245F0FF7646F4803603E0638D9BB220
:1017D000002B5CD0CDF800A00E9B002204212046F7
:1017E000FFF7C4FD0028BBD12268636A526A1A70F1
:1017F000618D228D636A013989B26185618D013AFB
:1018000092B2013389B2228563620029DED0002AB8
:10181000DCD18021CDF800A00E9B2046FFF7A6FD6D
:1018200028494FF0FF0E0F4645F00072002897D16F
:10183000638D9BB2734507D92268A4F828E05368EA
:101840000B4033435360C1E72068618D436889B220
:101850003B401343CFB243EA074321854360B5E7DA
:1018600084F840B028465DE72568628D134E6868AD
:10187000C7F3090141F0024392B2304043F41053E0
:10188000D6B2034343EA064322856B6098E752468B
:101890000E992046FFF740FD00287FF461AF2368D2
:1018A000094D2021D9615A682A405A6084F84110B4
:1018B00084F8400084F8420034E700BF009800FC40
:1018C0000024FF81009C00FC00E800FE2DE9F047A9
:1018D00084B00024039490F84150202D03D00220BE
:1018E00004B0BDE8F087D0F800C0DCF8184014F46C
:1018F000004EF4D190F84040012CF0D0C1F309061D
:101900001C46174646F000792422012380F8412026
:10191000054649F4005980F84030C0F844E0EB68CF
:10192000012B0CBF4B4646F42053CCF80430FEF795
:1019300023FE2B6899699A698046880602F0100296
:1019400012D40AB110E079B9611C07D0FEF714FE79
:10195000A0EB0800844226D32CB32B689A699969BE
:10196000920601F01001EED59A69CDF8008012F0D0
:101970001002234635D0002220212846FFF7F6FC2E
:10198000D8B92B6810224FF0200ADA61C3F81CA0E6
:10199000039ABA4213D0039A01320392039A9742F0
:1019A00001D99C46BBE7202385F841306B6C0022AF
:1019B00043F020036B6485F84020012090E75968CC
:1019C00041F48041596002462346CDF800805146DB
:1019D0002846FFF7CBFC0028EFD12B68C3F81CA0EA
:1019E000D9E720212846FFF7C1FC0028E5D12A6865
:1019F0002023D36185F8413085F8400070E700BFAF
:101A000090F84130DBB2202B01D002207047024613
:101A100090F840000128F8D010B41068242482F80F
:101A20004140046824F001040460046824F48054F4
:101A300004600468214301600168002441F0010151
:101A40000160204682F8404082F841305DF8044B46
:101A5000704700BF90F84130DBB2202B01D002204C
:101A60007047024690F840000128F8D010B4106882
:101A7000242482F84140046824F0010404600468CE
:101A800024F4706444EA012101600168002441F0FB
:101A900001010160204682F8404082F841305DF843
:101AA000044B7047024A136843F480731360704715
:101AB00000700040024B186800F4C060704700BF1F
:101AC00000700040B0F5007F0ED0204A136803F488
:101AD000C063B3F5806F36D0136823F4C06343F45A
:101AE000806313600020704718490B6803F4C063DB
:101AF000B3F5007F27D00A68154B164822F4C06260
:101B000042F4007210B40A601C684A69322303FB75
:101B100004F3A0FB03039B0C500503F1010306D55E
:101B200000E023B14A69520503F1FF33F9D4074BB2
:101B30005B695B0503D503205DF8044B704700200B
:101B40005DF8044B70470020704700BF00700040F4
:101B50000000002083DE1B4330B5204DAB6DDB0061
:101B600083B004461AD5FFF7A5FFB0F5007F27D054
:101B7000802C2CD82FD0A4F17004B4FA84F464091A
:101B800017490B6823F0070323430B60086800F034
:101B90000700001B18BF012003B030BDAB6D43F040
:101BA0008053AB65AB6D03F080530193019BFFF74E
:101BB00081FFAB6DB0F5007F23F08053AB65D7D1CB
:101BC000802C06D9A02C8CBF02240124D8E7032442
:101BD000D6E70024D4E70224D2E700BF0010024079
:101BE000002002402C4A9368D26813F00C0308D0FE
:101BF0000C2B37D0042B33D0082B284818BF0020DB
:101C00007047254A1168090754BFD2F8942012681A
:101C1000234954BFC2F30322C2F3031251F8220036
:101C2000FBB10C2B36D11C49CA68CB6802F0030209
:101C3000C3F30213022A03F1010322D0032A17D0AF
:101C4000B0FBF3F0CA68C2F3062300FB03F0124BAB
:101C5000DB68C3F3416301335B00B0FBF3F0704713
:101C60001048704702F00302012ACAD00020DAE7C8
:101C7000CA680A48B0FBF3F0C2F3062300FB03F086
:101C8000E5E7CA680748B0FBF3F0C2F3062300FBA0
:101C900003F0DCE7002070470010024000127A00D9
:101CA000AC3700080024F400002800F070822DE911
:101CB000F043984A03689568D6680446D80683B00E
:101CC00005F00C0506F003062ED5002D00F0298145
:101CD0000C2D00F02381A3698E4F002B00F066814C
:101CE0003B6843F001033B60FEF746FC804606E09C
:101CF000FEF742FCA0EB0800022800F267813B6877
:101D00009B07F5D53B6843F008033B603B68226ABC
:101D100023F0F00313433B607B68E26923F47F43C5
:101D200043EA02237B602368D90729D5082D00F0F8
:101D30007B810C2D00F075816368B3F5803F00F066
:101D40007D81B3F5A02F00F00D82724F3A6822F426
:101D500080323A603A6822F480223A60002B40F0E8
:101D60007281FEF709FC804606E0FEF705FCA0EB59
:101D70000800642800F22A813B689803F5D42368A0
:101D8000990700F1A280190719D56369614E002BEC
:101D900000F02081D6F8943043F00103C6F8943067
:101DA000FEF7EAFB074605E0FEF7E6FBC01B02284C
:101DB00000F20C81D6F894309A07F5D523685E07B7
:101DC0003FD5544B9A6DD00000F175819A6D42F069
:101DD00080529A659B6D03F080530193019B01270C
:101DE0004D4E3368D90540F1AB81A368012B00F05B
:101DF000C681052B00F06181464ED6F8902022F076
:101E00000102C6F89020D6F8902022F00402C6F80D
:101E10009020002B40F05E81FEF7AEFB41F2883847
:101E2000814606E0FEF7A8FBA0EB0900404500F262
:101E3000CD80D6F890309807F4D4002F40F07A8106
:101E40002368990618D5636A324E002B00F058813A
:101E5000D6F8983043F00103C6F89830FEF78CFBB3
:101E6000074605E0FEF788FBC01B022800F2AE80A3
:101E7000D6F898309A07F5D5A36A13B30C2D00F065
:101E80009180022B00F08581224B1A6822F080722B
:101E90001A601A68120140F148811E4CE36823F071
:101EA000887323F48033E360FEF766FB054605E0A4
:101EB000FEF762FB401B022800F2888023689B012A
:101EC000F6D4002003B0BDE8F083042D00F0998023
:101ED0000C2D00F09380E3680E4E002B00F0D980AB
:101EE000336843F480733360FEF746FB074604E033
:101EF000FEF742FBC01B022868D833685B05F7D5A4
:101F00007368226923F0F85343EA0263736023681D
:101F100039E700BF0010024000700040012E7FF43E
:101F2000DAAEA04B1B68990739D49E4B206A1A6819
:101F3000120756BFD3F894301B681B0903F0F00357
:101F4000834280F08F80FFF707FE58BB954B1A68DD
:101F500042F008021A601A68216A22F0F0020A436D
:101F60001A605A68E16922F47F4242EA01225A600B
:101F7000FFF738FE8B4B8C499B688C4AC3F30313E5
:101F8000CB5C03F01F0320FA03F300201360FEF77D
:101F9000BDFAE0B92368D9077FF5F2AEC6E6A369BA
:101FA000002BC2D1012003B0BDE8F0833B6823F0D1
:101FB00001033B60FEF7E0FA80463B689807E9D5ED
:101FC000FEF7DAFAA0EB08000228F6D9032003B0E6
:101FD000BDE8F083D6F8943023F00103C6F89430BE
:101FE000FEF7CAFA074604E0FEF7C6FAC01B02284D
:101FF000ECD8D6F894309B07F6D4DFE6022E7FF4B7
:102000006AAF684A1268520502D5E268002AC9D050
:10201000644920694A6822F0F85242EA00624A6044
:10202000B1E6032E7FF488AE5E4A126892037FF514
:10203000A7AE6268002A7FF4A3AEB3E7594A1368DB
:1020400043F480331360FEF797FA564F804605E05D
:10205000FEF792FAA0EB08006428B7D83B689B0310
:10206000F6D58CE64F4B1A6842F008021A601A68DF
:1020700022F0F00202431A605A68E16922F47F42BA
:1020800042EA01225A60FFF767FD00283FF470AF73
:1020900088E7336823F480733360FEF76DFA0746F0
:1020A00004E0FEF769FAC01B02288FD83368580590
:1020B000F7D4236867E6002792E63A4BD3F89020DE
:1020C00042F00402C3F89020D3F8902042F00102BD
:1020D000C3F89020FEF750FA324E814641F288381C
:1020E00006E0FEF749FAA0EB090040453FF66EAF67
:1020F000D6F890309B07F4D5002F3FF4A1AE19E03D
:10210000D6F8983023F00103C6F89830FEF734FA79
:10211000074605E0FEF730FAC01B02283FF656AF2F
:10212000D6F898309B07F5D4A6E6DA6822F00302C9
:10213000DA60B2E61B4A936D23F0805393657FE625
:10214000336843F480733360FEF716FA80463368D1
:10215000DA053FF54AAEFEF70FFAA0EB08000228B9
:10216000F5D933E703F18043A3F53C331A6842F411
:1021700080221A601A6842F480321A6063E7094AC2
:10218000D2F8903043F00103C2F89030A2E701206A
:102190007047044D2B6823F080732B60FEF7ECF939
:1021A00006460BE000100240DC370008000000206B
:1021B000FEF7E2F9801B02283FF608AF2B68980172
:1021C000F6D4A36B676BE66A206BE16B226C134C51
:1021D000DB0643EA072301383343490843EA001387
:1021E0000139520843EA4153013A43EA4263EB6042
:1021F0002B6843F080732B60EB6843F08073EB60D7
:10220000FEF7BAF9054605E0FEF7B6F9401B0228CD
:102210003FF6DCAE23689901F6D552E60010024085
:1022200078B1464A136803F007038B420BD2136858
:1022300023F007030B431360136803F0070399426D
:1022400001D00120704703682DE9F0410D46D90700
:1022500004461BD4990706D53949A0688A6822F03C
:10226000F00202438A6035490A6802F0070295428B
:1022700032D20A6822F007022A430A600A6802F092
:102280000702954228D00120BDE8F08143682C4A1E
:10229000032B12684CD0022B44D0002B4BD1960755
:1022A000F1D5274EB26822F003021343B360FEF764
:1022B00063F941F28837804605E0FEF75DF9A0EB4F
:1022C0000800B84231D8B368626803F00C03B3EB7E
:1022D000820FF2D12368BDE75A0706D51849E06896
:1022E0008A6822F4E06202438A601B0707D5144A19
:1022F0002169936823F4605343EAC1039360FFF7B5
:1023000071FC0F4B0F499B680F4AC3F30313BDE8E1
:10231000F041CB5C03F01F0320FA03F300201360AD
:10232000FEF7F4B89703BCD4ADE70320BDE8F08115
:102330009201B6D4A7E75005A5D5B2E70020024028
:1023400000100240DC37000800000020014B186834
:10235000704700BF00000020054B064A9B680649F5
:10236000C3F302230868D35C03F01F03D84070470F
:1023700000100240EC37000800000020054B064A20
:102380009B680649C3F3C2230868D35C03F01F03AC
:10239000D840704700100240EC37000800000020D1
:1023A000464AF8B5D3689B0707D0D368046803F0A2
:1023B0000303A3420CD00120F8BD0368022B11D007
:1023C000032B55D0012BF6D112689707F3D50CE0FB
:1023D000002BF0D0D3684268C3F302130133934259
:1023E000E9D10CE012685605E5D5344D4468EA6839
:1023F00022F073021343013C43EA0413EB602F4CB9
:10240000236823F0806323600F460646FEF7B4F886
:10241000054604E0FEF7B0F8401B022826D82368E2
:102420001A01F7D45FBB2269F368B16822F07842E1
:10243000DB0622F4FE4243EA0123134323611F4CCF
:10244000236843F080632360FEF796F8054604E0B6
:10245000FEF792F8401B022808D823681B01F7D525
:10246000B2692369134323610020F8BD0320F8BD3E
:102470001468A503B9D4126854039CD5B5E7012F9D
:1024800023690DD07269B16823F0C06323F4FE4361
:10249000520843EA0123013A43EA42632361CEE74B
:1024A0003269B16823F4C00323F4FE43520843EABF
:1024B0000123013A43EA42532361C0E7001002407E
:1024C0002DE9F043036813F4006783B004460CD091
:1024D000C16BB1F5000F00F01B81B1F5400F00F0AA
:1024E0000381002900F01A8101279D0357D59F4BD6
:1024F0009A6DD00040F1DF804FF000089C4D2B68B2
:1025000043F480732B60FEF737F8064605E0FEF7CC
:1025100033F8801B022800F2DA802B68D905F6D543
:10252000C7BB924A216DD2F8903013F4407329D082
:102530008B4200F01581D2F89030D2F8900040F430
:102540008030C2F89000D2F8900023F4407320F459
:102550008030C2F89000C2F89030DA0712D5FEF74A
:102560000BF8824D814641F2883606E0FEF704F80A
:10257000A0EB0900B04200F2AA80D5F890309B078A
:10258000F4D5216D794AD2F8903023F440730B438F
:10259000C2F89030B8F1000F40F09E802368DE074B
:1025A00008D57249206AD1F8882022F0030202433C
:1025B000C1F888209D0708D56C49606AD1F8882049
:1025C00022F00C020243C1F88820980608D567491A
:1025D000A06AD1F8882022F440620243C1F8882022
:1025E000990508D56149606BD1F8882022F4402212
:1025F0000243C1F888205A0508D55C49A06BD1F880
:10260000882022F440120243C1F888205E0608D5D3
:102610005649E06AD1F8882022F440520243C1F8BA
:102620008820DD0508D55149206BD1F8882022F497
:1026300040320243C1F8882098040ED54B48216CE3
:10264000D0F8882022F040620A43B1F1006FC0F850
:10265000882058D0B1F1806F70D059030ED543480F
:10266000616CD0F8882022F040620A43B1F1006F1B
:10267000C0F8882042D0B1F1806F67D05A040BD5E2
:102680003A48A16CD0F8882022F040520A43B1F1B8
:10269000805FC0F8882049D01B0408D5334AE16C1C
:1026A000D2F8883023F080430B43C2F88830384694
:1026B00003B0BDE8F0839A6D42F080529A659B6D3D
:1026C00003F080530193019B4FF0010816E70327A5
:1026D000B8F1000F3FF462AF244A936D23F08053AA
:1026E00093655BE7E16B23682048D0F8882022F4EB
:1026F00040021143C0F888100027F6E6C26842F491
:102700008012C260BAE7C26842F48012C260A4E7D5
:102710001648C26842F48032C260E5E70430FFF731
:102720003FFE07460028DDD02368DEE60221201D9B
:10273000FFF736FE90B107462368ADE70121201D63
:10274000FFF72EFE70B10746236886E70121201DA2
:10275000FFF726FE40B1074623688FE723689BE713
:102760000B46FAE6236878E7236887E70010024003
:1027700000700040024A136843F00403136070477E
:1027800000100240F8B50446AD482268A3682769E6
:1027900066691568E1693B43334328400B430343B3
:1027A00013605368E668A748A56923F44053334390
:1027B0008242536012D09068236AA34E20F43060A6
:1027C0002B430343B242936042D0A04B9A4200F0A5
:1027D0009C800120002323666366F8BD93689C49B2
:1027E00023F430632B439360D1F8885005F440659F
:1027F000B5F5806F00F0D08040F2C580B5F5006F70
:1028000000F08C80B5F5406FE3D14FF4004008250F
:10281000626802EB42038342DBD8B0EB023FD8D8B8
:10282000082DD6D801A353F825F000BF8129000850
:10283000D327000867290008D32700084729000884
:10284000D3270008D3270008D3270008232900082E
:102850007F4A804BD2F8882002F0030213441B7C8D
:10286000B1F5004F00F09F80082BB2D801A252F8BA
:1028700023F000BFF9280008E7280008D328000843
:10288000D3270008C1280008D3270008D327000851
:10289000D3270008992800086268530803F500430D
:1028A000B3FBF2F39BB2A3F110014FF6EF7291422A
:1028B0008FD82268D3600023002023666366F8BDAA
:1028C000FFF790F9626800EB5203B3FBF2F39BB29F
:1028D000E9E76268530803F5740303F51053B3FB8B
:1028E000F2F39BB2DFE7FFF749FD626800EB5203AA
:1028F000B3FBF2F39BB2D6E7FFF72EFD626800EB65
:102900005203B3FBF2F39BB2CDE703F5E633514A32
:10291000D3F8883003F00C03D35CA1E74E480225BE
:1029200076E7500810F500004FF000014FF000036B
:1029300041F10001FDF762FC0346484AA3F54071EE
:102940009142B6D945E7FFF74DF962684FF48073BD
:1029500056080027E3FB0067304600233946FDF7A1
:102960004DFC0346E9E73E485308C0184FF000010C
:102970004FF0000341F10001FDF740FC0346DCE7A6
:10298000FFF7EAFCE1E7002D7FF423AFFFF7E4FC5B
:1029900000287FF43DAF1DE7FFF724F90425002848
:1029A0007FF436AF16E7082B3FF613AF01A252F8BB
:1029B00023F000BFD92900083B2A0008272A000875
:1029C000D3270008212A0008D3270008D3270008AE
:1029D000D3270008112A0008FFF7BEFC62685308DD
:1029E00003EB4003B3FBF2F39BB2A3F110014FF6EC
:1029F000EF7291423FF6EDAE23F00F022168C3F370
:102A000042031343CB600023002023666366F8BDB6
:102A10006268530803F58033B3FBF2F39BB2E4E73B
:102A2000FFF7E0F8DAE76268530803F1F47303F59F
:102A30009043B3FBF2F39BB2D7E7FFF79FFCCDE7E0
:102A4000F369FFEF0080004000380140004400407F
:102A500000100240983700080024F400FFFC0F002B
:102A6000000024F4436ADA0710B406D50168846ACA
:102A70004A6822F4003222434A609C0706D5016866
:102A8000C46A4A6822F4803222434A60590706D554
:102A90000168046B4A6822F4802222434A601A07C4
:102AA00006D50168446B4A6822F4004222434A601A
:102AB000DC0606D50168846B8A6822F480522243C2
:102AC0008A60990606D50168C46B8A6822F40052B0
:102AD00022438A605A0609D50168046C4A6822F4C8
:102AE00080122243B4F5801F4A600BD01B0606D526
:102AF0000268816C536823F400230B4353605DF834
:102B0000044B70474A68446C22F4C00222434A6076
:102B1000ECE700BF2DE9F843089D80460F461646B6
:102B20009946D8F8004001E06B1C0AD1E06937EA09
:102B300000030CBF01200020B042F5D00020BDE80A
:102B4000F8833DB1FDF718FDA0EB09008542E8D2FE
:102B5000D8F80040236823F4D0732360A3682022B0
:102B600023F001030021A360032088F8712088F876
:102B7000701088F87220BDE8F88300BF70B5044675
:102B8000002582B04567FDF7F7FC23681A68120735
:102B900006460CD41B685B0717D42023002084F85A
:102BA000713084F8700084F8723002B070BD6FF03C
:102BB0007E4300932A4603464FF400112046FFF758
:102BC000A9FF80B1032002B070BD6FF07E42009279
:102BD000334600224FF480012046FFF79BFF002878
:102BE000DBD00320EFE72368D4E700BF90B390F871
:102BF000713010B503F0FF02044603B322682423AA
:102C000084F87130136823F0010313602046FFF746
:102C1000B9FD012818D0636AC3B923685A6822F441
:102C200090425A609A6822F02A029A601A6842F02A
:102C3000010220461A60BDE81040FFF79FBF80F8F0
:102C4000702000F0EDFCD9E7012010BD2046FFF711
:102C500009FFE2E70120704770B59D68DA6007263A
:102C6000002283E803001C46AA60EA602A7501235B
:102C70002E610322052100F09DF908B1012070BDED
:102C80000546C820FDF77EFC2B462A4629462068CB
:102C900000F0E6F808B1022070BDC820FDF772FC14
:102CA0006068FEF71DF808B1032070BDE068FEF70C
:102CB000D9F8002814BF0420002070BD2DE9F04190
:102CC0000446006800F0D4F910B10120BDE8F0819D
:102CD000206800F02DF910B10220BDE8F0814FF41A
:102CE0007A716068FDF738FD054610B10320BDE834
:102CF000F0816068FDF782FD134A144B967992F8D3
:102D0000078092F809C0117A92F80BE02061DF7910
:102D1000907A46EA08249E79148041EA0C2140EA20
:102D20000E2046EA0726518093F809E01C7ADF7AE4
:102D3000997A908044EA0E2441EA072228461E80B0
:102D40005C809A80BDE8F0812C0000203C000020CF
:102D500030B58BB0002340F2214506228DF80810D3
:102D600004468DF80E308DF80F30069307938DF8DA
:102D700024300495089205290BD8DFE801F0262EAF
:102D8000363E4603254BDA7A9B7A8DF80A308DF869
:102D90000920234B1B686361190A1A0C8DF80D304A
:102DA0008DF80C108DF80B20E068FEF7E1F8002894
:102DB000FAD0E06801AB02AA04A9FEF781F8002866
:102DC00014BF042000200BB030BD164BDA799B797C
:102DD0008DF80A308DF80920DBE7124B5A7A1B7AFE
:102DE0008DF80A308DF80920D3E70E4BDA7A9B7AFA
:102DF0008DF80A308DF80920CBE7084BDA799B79FA
:102E00008DF80A308DF80920C3E7044B5A7A1B7AF3
:102E10008DF80A308DF80920BBE700BF3C00002088
:102E2000280000202C000020F0B585B00124642586
:102E3000174600930A46029501942346D62106467A
:102E4000FEF766FC48B90A9B00930295019423465D
:102E50003A463046D621FEF75BFC05B0F0BD00BF18
:102E60002DE9F0430C4687B01646984602226423AB
:102E7000D6210746FEF72AFD00283FD1012E44D077
:102E800047D3022E3DD0254B9FED257AD3ED036A23
:102E9000C6EE877A06ADA40144F02F0405F8014D73
:102EA0004FF0640901242022D6213846C3ED037A6D
:102EB0000095CDF8089001942346FEF753FBE8B93E
:102EC0003601CDF808900194009523462322D6219F
:102ED00038468DF81760FEF745FB78B9B8F1000F5A
:102EE0000CD001942346CDF8089010240095384664
:102EF0002422D6218DF81740FEF734FB07B0BDE839
:102F0000F083DFED087A054BC4E7DFED077A034B6A
:102F1000C0E7DFED067A014BBCE700BF3C000020B4
:102F200000007A44295C8F3D295C8F3C295C0F3C72
:102F300030B5104C83B0631C00942822292105462B
:102F4000FFF772FF08B103B030BDA31C00932A2223
:102F5000E31C2B212846FFF767FF0028F3D1231D30
:102F600000932846631D2C222D21FFF75DFF03B03F
:102F700030BD00BF420000202DE9F04184B00A2599
:102F80000A9C009401240F4698460295019423461A
:102F90003A210646FEF7BCFB48B902950194CDF8EC
:102FA000008023463A4630463A21FEF7B1FB04B092
:102FB000BDE8F0812DE9F0430C4687B016461D466A
:102FC000022264233A210746FEF780FC10BB042D41
:102FD00004D8DFE805F038033A3C3E001E48DFF82D
:102FE0008CE00DF11808240144F0070408F8014DA5
:102FF0004FF00A090124CDF80080CDF80890019423
:103000002346CEF80C0020223A213846FEF7AAFAD1
:1030100018B1204607B0BDE8F083B60146EAC50501
:10302000CDF808900194CDF800802346384621223F
:103030003A218DF81750FEF795FA003018BF01209D
:1030400007B0BDE8F0830548C9E70548C7E705486C
:10305000C5E70548C3E700BF41DAFF3841DA7F38EA
:10306000B0E33F3941DA7F39B0E33F3A2C0000202A
:1030700030B5104C83B0631C0094282229210546EA
:10308000FFF77AFF08B103B030BDA31C00932A22DA
:10309000E31C2B212846FFF76FFF0028F3D1231DE7
:1030A00000932846631D2C222D21FFF765FF03B0F6
:1030B00030BD00BF32000020F0B5ADB0FEF7F2FC2D
:1030C0002E4AD2F8903023F01803C2F89030012431
:1030D00002251421002260231027072606A8069146
:1030E00008940C94119412940D920E9310951595CA
:1030F000169513971496FEF7D7FD00B1FEE70F2241
:103100000323039004900590214601A801920293A5
:10311000FFF786F800B1FEE744F242014FF080521B
:103120004FF080732090229017A8189419941A9742
:103130001B961C951D95179129921E93FFF7C0F9B8
:1031400000B1FEE74FF40070FEF7BCFC044600B18E
:10315000FEE7FFF7FBF80A4BA3FB00308009FDF701
:1031600063FF0420FDF77AFFFFF704FB22462146A8
:103170004FF0FF30FDF722FF2DB0F0BD00100240F0
:10318000D34D62102DE9F04F8BB0FDF7D9F9FFF761
:1031900093FFAA4BAA48DA6CAA4D42F00402DA6403
:1031A000DA6C02F004020192019ADA6C42F0010238
:1031B000DA64DA6C02F001020292029ADA6C42F0EE
:1031C0000202DA64DB6C03F002030022039308219D
:1031D0000024039B0127FEF72BF8082304A9984835
:1031E0000493059706940794FDF74AFF964B4FF416
:1031F000E1310C2218469C60DC601C619C61DC6142
:103200001C625C621D6059605A61FFF7EFFC00B1FF
:10321000FEE78E4E8E498F4AB0600346304686E800
:103220000600F76033617361B361F3613362FEF7E7
:1032300043F9014600B1FEE73046FEF7E1FB0146E7
:1032400000B1FEE73046FEF705FC034600B1FEE79D
:10325000814C8249A0604FF480524FF400294FF016
:10326000040A2046E360236123766776E76184F8E9
:103270002030A362E36284F8303084F83830216073
:103280006263C4F80490C4F814A0FDF789F900B192
:10329000FEE77F23724A0690099004A94FF00608C2
:1032A00020460793CDF820A00492CDF81480FDF7B6
:1032B000A9FA034600B1FEE76A4D6B49A8604FF4D6
:1032C000A002E8602846C5F804A0C5F810902B7647
:1032D0006F76AB76EB762B776B7729606A61FDF7BB
:1032E0003FFD00B1FEE72A46214630465F4BFFF71F
:1032F000B3FC48B1524C20460821FDF79FFF4FF424
:103300007A70FDF73FF9F6E74FF4FA70FDF73AF9F6
:103310004B4D08212846FDF791FF9620FDF732F925
:10332000B8F10108F5D1524FDFF854B1DFF854A1DC
:10333000DFF854914F4EDFF854814C4D2846FFF78B
:10334000BDFC00284CD10446E1B22846FFF700FD41
:10335000013400285BD1072CF6D1B7F90030D6ED47
:10336000034A97ED034A05EE103AB7F9023005EE2D
:10337000903AB7F9043006EE103AB6F9003006EE8E
:10338000903AB6F9023007EE103AB6F90430B8EECA
:10339000C77A07EE903AB8EEC55A374BF8EEE55AC1
:1033A000B8EEC66AF8EEE66AF8EEE77A27EE247A17
:1033B00025EE045A83ED007A65EE845A26EE046AFF
:1033C00066EEA46A67EEA47A2C4B8BED005ACAED28
:1033D000005A89ED006AC8ED006AC3ED007AADE7D6
:1033E000174D052408212846FDF728FF013C4FF41E
:1033F0009670FDF7C7F814F0FF04F3D128460821B2
:10340000FDF71CFF4FF4FA60FDF7BCF8E9E70C4D3F
:10341000052408212846FDF711FF013C4FF47A707E
:10342000FDF7B0F814F0FF04F3D128460821FDF7AA
:1034300005FF4FF4FA60FDF7A5F8E9E70010024038
:1034400000040048004400402801002054000020EF
:1034500000540040BB7C7000C400002000000450F9
:1034600000018021A001002000640040AC00002089
:103470002C0000203C000020A80000202400002098
:10348000500000204C000020A4000020A0000020DC
:10349000224B00B51A6E42F001021A661A6E83B012
:1034A00002F001020092009A9A6D42F080529A65F1
:1034B0009B6D03F0805301930320019BFDF76CFD8E
:1034C000002211466FF00B00FDF778FD0022114637
:1034D0006FF00A00FDF772FD002211466FF009003F
:1034E000FDF76CFD002211466FF00400FDF766FD4C
:1034F000002211466FF00300FDF760FD0022114627
:103500006FF00100FDF75AFD002211464FF0FF3029
:10351000FDF754FD03B05DF804FB00BF001002404E
:103520000268104B9A4200D0704703F17043A3F534
:10353000F83330B5DA6C42F40052DA64DB6C87B0F1
:1035400003F4005300930B220023082401A94FF039
:103550009040009D019402920393FDF791FD07B006
:1035600030BD00BF000004500268184B9A4200D0E2
:10357000704703F5D633F0B59A6D42F000729A6544
:103580009B6D87B003F00073009301A94FF40062B4
:1035900002260123032509244FF090400192039352
:1035A000009F029604950594FDF76AFD4FF4805242
:1035B000002301A94FF090400296049505940192D2
:1035C0000393FDF75DFD07B0F0BD00BF0064004050
:1035D0000268104B9A4200D0704770B5042386B041
:1035E00003220DEB0301C026122501240A48049290
:1035F0000593019602950394FDF742FD074B9A6DE2
:1036000042F400129A659B6D03F400130093009B33
:1036100006B070BD00540040000400480010024095
:103620000268174B9A4200D0704703F5E633F0B5B5
:103630009A6D42F400329A659B6D87B003F40033B3
:1036400000930422032401A90226002507234FF03A
:10365000904001920593009F029603950494FDF714
:103660000FFD4FF4004301A94FF0904002960395DF
:10367000049405940193FDF703FD07B0F0BD00BF6E
:103680000044004008B5FCF76FFFBDE80840FDF7B7
:10369000F3BC00BF1149124BD1F8882042F47002EC
:1036A00010B4C1F888201A68002042F001021A60A4
:1036B00098601A6822F0A85222F410224FF4805425
:1036C0001A60DC601A684FF0006422F480221A60ED
:1036D00098618C605DF8044B704700BF00ED00E01E
:1036E00000100240DFF834D0002103E00C4B5B589F
:1036F000435004310B480C4B42189A42F6D30B4A04
:1037000002E0002342F8043B094B9A42F9D3FFF749
:10371000C1FF00F011F8FFF735FDFEE700000120C2
:1037200010380008000000200800002008000020D9
:10373000C8010020FEE7000070B50D4E0D4CA41B23
:10374000A4100025A54209D10B4E0C4C00F018F82E
:10375000A41BA4100025A54205D170BD56F8253044
:1037600098470135EEE756F8253098470135F2E7DE
:103770000038000800380008003800080438000845
:10378000F8B500BFF8BC08BC9E467047F8B500BF4E
:08379000F8BC08BC9E4670471E
:103798000010101004101010021010100800000083
:1037A80001040208A0860100400D0300801A0600EB
:1037B80000350C0040420F0080841E0000093D00C7
:1037C80000127A000024F40000366E010048E80177
:1037D800006CDC020000000000000000010203048D
:1037E80006070809000000000102030400000000A9
:0837F80034CAFF7F010000004C
:08380000B50100080000000002
:0838080091010008000000001E
:0838100000093D00000000006A
:04000005080036E5D4
:00000001FF
